{
  "contractName": "SportupResultApp",
  "abi": [
    {
      "constant": false,
      "inputs": [],
      "name": "unpause",
      "outputs": [],
      "payable": false,
      "stateMutability": "nonpayable",
      "type": "function"
    },
    {
      "constant": true,
      "inputs": [
        {
          "name": "account",
          "type": "address"
        }
      ],
      "name": "isPauser",
      "outputs": [
        {
          "name": "",
          "type": "bool"
        }
      ],
      "payable": false,
      "stateMutability": "view",
      "type": "function"
    },
    {
      "constant": true,
      "inputs": [],
      "name": "tokenContract",
      "outputs": [
        {
          "name": "",
          "type": "address"
        }
      ],
      "payable": false,
      "stateMutability": "view",
      "type": "function"
    },
    {
      "constant": true,
      "inputs": [],
      "name": "paused",
      "outputs": [
        {
          "name": "",
          "type": "bool"
        }
      ],
      "payable": false,
      "stateMutability": "view",
      "type": "function"
    },
    {
      "constant": false,
      "inputs": [],
      "name": "renouncePauser",
      "outputs": [],
      "payable": false,
      "stateMutability": "nonpayable",
      "type": "function"
    },
    {
      "constant": false,
      "inputs": [
        {
          "name": "account",
          "type": "address"
        }
      ],
      "name": "addPauser",
      "outputs": [],
      "payable": false,
      "stateMutability": "nonpayable",
      "type": "function"
    },
    {
      "constant": false,
      "inputs": [],
      "name": "pause",
      "outputs": [],
      "payable": false,
      "stateMutability": "nonpayable",
      "type": "function"
    },
    {
      "inputs": [
        {
          "name": "_tokenContract",
          "type": "address"
        },
        {
          "name": "_resultDataContract",
          "type": "address"
        }
      ],
      "payable": false,
      "stateMutability": "nonpayable",
      "type": "constructor"
    },
    {
      "anonymous": false,
      "inputs": [
        {
          "indexed": false,
          "name": "inviteid",
          "type": "string"
        },
        {
          "indexed": false,
          "name": "blockstackid",
          "type": "string"
        },
        {
          "indexed": false,
          "name": "submitter",
          "type": "address"
        },
        {
          "indexed": true,
          "name": "key",
          "type": "bytes32"
        }
      ],
      "name": "OracleRequest",
      "type": "event"
    },
    {
      "anonymous": false,
      "inputs": [
        {
          "indexed": false,
          "name": "key",
          "type": "bytes32"
        },
        {
          "indexed": false,
          "name": "log",
          "type": "string"
        }
      ],
      "name": "SubmissionStatus",
      "type": "event"
    },
    {
      "anonymous": false,
      "inputs": [
        {
          "indexed": true,
          "name": "submitter",
          "type": "address"
        },
        {
          "indexed": false,
          "name": "result",
          "type": "uint8"
        },
        {
          "indexed": false,
          "name": "blockstack",
          "type": "string"
        }
      ],
      "name": "Submited",
      "type": "event"
    },
    {
      "anonymous": false,
      "inputs": [
        {
          "indexed": false,
          "name": "inviteid",
          "type": "string"
        }
      ],
      "name": "WinnerMatched",
      "type": "event"
    },
    {
      "anonymous": false,
      "inputs": [
        {
          "indexed": false,
          "name": "inviteid",
          "type": "string"
        }
      ],
      "name": "WinnerNotMatched",
      "type": "event"
    },
    {
      "anonymous": false,
      "inputs": [
        {
          "indexed": true,
          "name": "changer",
          "type": "address"
        },
        {
          "indexed": false,
          "name": "newRatio",
          "type": "uint256"
        }
      ],
      "name": "RewardRatioChanged",
      "type": "event"
    },
    {
      "anonymous": false,
      "inputs": [
        {
          "indexed": false,
          "name": "account",
          "type": "address"
        }
      ],
      "name": "Paused",
      "type": "event"
    },
    {
      "anonymous": false,
      "inputs": [
        {
          "indexed": false,
          "name": "account",
          "type": "address"
        }
      ],
      "name": "Unpaused",
      "type": "event"
    },
    {
      "anonymous": false,
      "inputs": [
        {
          "indexed": true,
          "name": "account",
          "type": "address"
        }
      ],
      "name": "PauserAdded",
      "type": "event"
    },
    {
      "anonymous": false,
      "inputs": [
        {
          "indexed": true,
          "name": "account",
          "type": "address"
        }
      ],
      "name": "PauserRemoved",
      "type": "event"
    },
    {
      "constant": false,
      "inputs": [
        {
          "name": "oracleAddress",
          "type": "address"
        }
      ],
      "name": "authorizeOracle",
      "outputs": [],
      "payable": false,
      "stateMutability": "nonpayable",
      "type": "function"
    },
    {
      "constant": false,
      "inputs": [
        {
          "name": "oracleAddress",
          "type": "address"
        }
      ],
      "name": "deauthorizeOracle",
      "outputs": [],
      "payable": false,
      "stateMutability": "nonpayable",
      "type": "function"
    },
    {
      "constant": false,
      "inputs": [
        {
          "name": "result",
          "type": "uint8"
        },
        {
          "name": "blockstack",
          "type": "string"
        },
        {
          "name": "inviteid",
          "type": "string"
        }
      ],
      "name": "submitt",
      "outputs": [],
      "payable": false,
      "stateMutability": "nonpayable",
      "type": "function"
    },
    {
      "constant": false,
      "inputs": [
        {
          "name": "key",
          "type": "bytes32"
        },
        {
          "name": "status",
          "type": "uint8"
        }
      ],
      "name": "oracleResponse",
      "outputs": [],
      "payable": false,
      "stateMutability": "nonpayable",
      "type": "function"
    },
    {
      "constant": false,
      "inputs": [
        {
          "name": "_newRatio",
          "type": "uint256"
        }
      ],
      "name": "setRewardRatio",
      "outputs": [],
      "payable": false,
      "stateMutability": "nonpayable",
      "type": "function"
    },
    {
      "constant": true,
      "inputs": [],
      "name": "getRewardRatio",
      "outputs": [
        {
          "name": "",
          "type": "uint256"
        }
      ],
      "payable": false,
      "stateMutability": "view",
      "type": "function"
    },
    {
      "constant": false,
      "inputs": [
        {
          "name": "blockstackid",
          "type": "string"
        }
      ],
      "name": "addBlockstackID",
      "outputs": [],
      "payable": false,
      "stateMutability": "nonpayable",
      "type": "function"
    },
    {
      "constant": false,
      "inputs": [
        {
          "name": "blockstackid",
          "type": "string"
        },
        {
          "name": "currentAddress",
          "type": "address"
        },
        {
          "name": "newAddress",
          "type": "address"
        }
      ],
      "name": "updateBlockstackEthAddress",
      "outputs": [],
      "payable": false,
      "stateMutability": "nonpayable",
      "type": "function"
    },
    {
      "constant": true,
      "inputs": [
        {
          "name": "blockstackid",
          "type": "string"
        }
      ],
      "name": "blockstackethAddressStatus",
      "outputs": [
        {
          "name": "",
          "type": "bool"
        }
      ],
      "payable": false,
      "stateMutability": "view",
      "type": "function"
    }
  ],
  "bytecode": "0x60806040523480156200001157600080fd5b50604051604080620036f6833981018060405260408110156200003357600080fd5b810190808051906020019092919080519060200190929190505050600160008190555062000067336200024860201b60201c565b6000600260006101000a81548160ff02191690831515021790555033600560006101000a81548173ffffffffffffffffffffffffffffffffffffffff021916908373ffffffffffffffffffffffffffffffffffffffff16021790555081600260016101000a81548173ffffffffffffffffffffffffffffffffffffffff021916908373ffffffffffffffffffffffffffffffffffffffff160217905550612710600481905550600260019054906101000a900473ffffffffffffffffffffffffffffffffffffffff1673ffffffffffffffffffffffffffffffffffffffff1663095ea7b3336012600a0a633b9aca00026040518363ffffffff1660e01b8152600401808373ffffffffffffffffffffffffffffffffffffffff1673ffffffffffffffffffffffffffffffffffffffff16815260200182815260200192505050602060405180830381600087803b158015620001c157600080fd5b505af1158015620001d6573d6000803e3d6000fd5b505050506040513d6020811015620001ed57600080fd5b81019080805190602001909291905050505080600360006101000a81548173ffffffffffffffffffffffffffffffffffffffff021916908373ffffffffffffffffffffffffffffffffffffffff16021790555050506200046d565b62000263816001620002a960201b62002fc61790919060201c565b8073ffffffffffffffffffffffffffffffffffffffff167f6719d08c1888103bea251a4ed56406bd0c3e69723c8a1686e017e7bbe159b6f860405160405180910390a250565b620002bb82826200038d60201b60201c565b156200032f576040517f08c379a000000000000000000000000000000000000000000000000000000000815260040180806020018281038252601f8152602001807f526f6c65733a206163636f756e7420616c72656164792068617320726f6c650081525060200191505060405180910390fd5b60018260000160008373ffffffffffffffffffffffffffffffffffffffff1673ffffffffffffffffffffffffffffffffffffffff16815260200190815260200160002060006101000a81548160ff0219169083151502179055505050565b60008073ffffffffffffffffffffffffffffffffffffffff168273ffffffffffffffffffffffffffffffffffffffff16141562000416576040517f08c379a0000000000000000000000000000000000000000000000000000000008152600401808060200182810382526022815260200180620036d46022913960400191505060405180910390fd5b8260000160008373ffffffffffffffffffffffffffffffffffffffff1673ffffffffffffffffffffffffffffffffffffffff16815260200190815260200160002060009054906101000a900460ff16905092915050565b613257806200047d6000396000f3fe608060405234801561001057600080fd5b50600436106101005760003560e01c806374969bf21161009757806397e1b4bc1161006657806397e1b4bc14610537578063a2a9c3f014610555578063a943600d14610599578063f921110f146105c757610100565b806374969bf2146103335780637ec1230b1461042e57806382dc1ec4146104e95780638456cb591461052d57610100565b806351b4e1f5116100d357806351b4e1f51461028257806355a373d6146102bd5780635c975abb146103075780636ef8d66d1461032957610100565b80630f13b763146101055780632c3ac3a1146101495780633f4ba83a1461021c57806346fbf68e14610226575b600080fd5b6101476004803603602081101561011b57600080fd5b81019080803573ffffffffffffffffffffffffffffffffffffffff169060200190929190505050610726565b005b6102026004803603602081101561015f57600080fd5b810190808035906020019064010000000081111561017c57600080fd5b82018360208201111561018e57600080fd5b803590602001918460018302840111640100000000831117156101b057600080fd5b91908080601f016020809104026020016040519081016040528093929190818152602001838380828437600081840152601f19601f8201169050808301925050505050505091929192905050506108b4565b604051808215151515815260200191505060405180910390f35b6102246109df565b005b6102686004803603602081101561023c57600080fd5b81019080803573ffffffffffffffffffffffffffffffffffffffff169060200190929190505050610b3f565b604051808215151515815260200191505060405180910390f35b6102bb6004803603604081101561029857600080fd5b8101908080359060200190929190803560ff169060200190929190505050610b5c565b005b6102c5611a5b565b604051808273ffffffffffffffffffffffffffffffffffffffff1673ffffffffffffffffffffffffffffffffffffffff16815260200191505060405180910390f35b61030f611a81565b604051808215151515815260200191505060405180910390f35b610331611a98565b005b61042c6004803603606081101561034957600080fd5b810190808035906020019064010000000081111561036657600080fd5b82018360208201111561037857600080fd5b8035906020019184600183028401116401000000008311171561039a57600080fd5b91908080601f016020809104026020016040519081016040528093929190818152602001838380828437600081840152601f19601f820116905080830192505050505050509192919290803573ffffffffffffffffffffffffffffffffffffffff169060200190929190803573ffffffffffffffffffffffffffffffffffffffff169060200190929190505050611aa3565b005b6104e76004803603602081101561044457600080fd5b810190808035906020019064010000000081111561046157600080fd5b82018360208201111561047357600080fd5b8035906020019184600183028401116401000000008311171561049557600080fd5b91908080601f016020809104026020016040519081016040528093929190818152602001838380828437600081840152601f19601f820116905080830192505050505050509192919290505050611eb3565b005b61052b600480360360208110156104ff57600080fd5b81019080803573ffffffffffffffffffffffffffffffffffffffff169060200190929190505050612234565b005b61053561229e565b005b61053f6123ff565b6040518082815260200191505060405180910390f35b6105976004803603602081101561056b57600080fd5b81019080803573ffffffffffffffffffffffffffffffffffffffff169060200190929190505050612409565b005b6105c5600480360360208110156105af57600080fd5b8101908080359060200190929190505050612595565b005b610724600480360360608110156105dd57600080fd5b81019080803560ff1690602001909291908035906020019064010000000081111561060757600080fd5b82018360208201111561061957600080fd5b8035906020019184600183028401116401000000008311171561063b57600080fd5b91908080601f016020809104026020016040519081016040528093929190818152602001838380828437600081840152601f19601f8201169050808301925050505050505091929192908035906020019064010000000081111561069e57600080fd5b8201836020820111156106b057600080fd5b803590602001918460018302840111640100000000831117156106d257600080fd5b91908080601f016020809104026020016040519081016040528093929190818152602001838380828437600081840152601f19601f820116905080830192505050505050509192919290505050612728565b005b600560009054906101000a900473ffffffffffffffffffffffffffffffffffffffff1673ffffffffffffffffffffffffffffffffffffffff163373ffffffffffffffffffffffffffffffffffffffff16146107e9576040517f08c379a000000000000000000000000000000000000000000000000000000000815260040180806020018281038252600a8152602001807f41646d696e206f6e6c790000000000000000000000000000000000000000000081525060200191505060405180910390fd5b600260009054906101000a900460ff161561086c576040517f08c379a00000000000000000000000000000000000000000000000000000000081526004018080602001828103825260108152602001807f5061757361626c653a207061757365640000000000000000000000000000000081525060200191505060405180910390fd5b6001600760008373ffffffffffffffffffffffffffffffffffffffff1673ffffffffffffffffffffffffffffffffffffffff1681526020019081526020016000208190555050565b600080826040516020018082805190602001908083835b602083106108ee57805182526020820191506020810190506020830392506108cb565b6001836020036101000a038019825116818451168082178552505050505050905001915050604051602081830303815290604052805190602001209050600960003373ffffffffffffffffffffffffffffffffffffffff1673ffffffffffffffffffffffffffffffffffffffff16815260200190815260200160002054811480156109d757506008600082815260200190815260200160002060009054906101000a900473ffffffffffffffffffffffffffffffffffffffff1673ffffffffffffffffffffffffffffffffffffffff163373ffffffffffffffffffffffffffffffffffffffff16145b915050919050565b6109e833610b3f565b610a3d576040517f08c379a00000000000000000000000000000000000000000000000000000000081526004018080602001828103825260308152602001806131b96030913960400191505060405180910390fd5b600260009054906101000a900460ff16610abf576040517f08c379a00000000000000000000000000000000000000000000000000000000081526004018080602001828103825260148152602001807f5061757361626c653a206e6f742070617573656400000000000000000000000081525060200191505060405180910390fd5b6000600260006101000a81548160ff0219169083151502179055507f5db9ee0a495bf2e6ff9c91a7834c1ba4fdd244a5e8aa4e537bd38aeae4b073aa33604051808273ffffffffffffffffffffffffffffffffffffffff1673ffffffffffffffffffffffffffffffffffffffff16815260200191505060405180910390a1565b6000610b55826001612ce890919063ffffffff16565b9050919050565b6001600760003373ffffffffffffffffffffffffffffffffffffffff1673ffffffffffffffffffffffffffffffffffffffff1681526020019081526020016000205414610c11576040517f08c379a000000000000000000000000000000000000000000000000000000000815260040180806020018281038252601f8152602001807f43616c6c6572206973206e6f7420617574686f72697a6564204f7261636c650081525060200191505060405180910390fd5b600a60ff166006600084815260200190815260200160002060020160009054906101000a900460ff1660ff1614610cb0576040517f08c379a00000000000000000000000000000000000000000000000000000000081526004018080602001828103825260178152602001807f737461747573207375626d6974746564206265666f726500000000000000000081525060200191505060405180910390fd5b806006600084815260200190815260200160002060020160006101000a81548160ff021916908360ff160217905550610ce76130a1565b600660008481526020019081526020016000206040518060a00160405290816000820160009054906101000a900473ffffffffffffffffffffffffffffffffffffffff1673ffffffffffffffffffffffffffffffffffffffff1673ffffffffffffffffffffffffffffffffffffffff1681526020016000820160149054906101000a900460ff1660ff1660ff168152602001600182018054600181600116156101000203166002900480601f016020809104026020016040519081016040528092919081815260200182805460018160011615610100020316600290048015610e115780601f10610de657610100808354040283529160200191610e11565b820191906000526020600020905b815481529060010190602001808311610df457829003601f168201915b505050505081526020016002820160009054906101000a900460ff1660ff1660ff168152602001600382018054600181600116156101000203166002900480601f016020809104026020016040519081016040528092919081815260200182805460018160011615610100020316600290048015610ed05780601f10610ea557610100808354040283529160200191610ed0565b820191906000526020600020905b815481529060010190602001808311610eb357829003601f168201915b50505050508152505090507f25ce5e1071030fb8299e174d9208071364b28998163e6f5d0f8315f4e6ba8715836040518082815260200180602001828103825260098152602001807f6669727374206c6f6700000000000000000000000000000000000000000000008152506020019250505060405180910390a1601460ff16816060015160ff1614156119e557600360009054906101000a900473ffffffffffffffffffffffffffffffffffffffff1673ffffffffffffffffffffffffffffffffffffffff16638914e1d982600001518360200151846040015185608001516040518563ffffffff1660e01b8152600401808573ffffffffffffffffffffffffffffffffffffffff1673ffffffffffffffffffffffffffffffffffffffff1681526020018460ff1660ff1681526020018060200180602001838103835285818151815260200191508051906020019080838360005b83811015611041578082015181840152602081019050611026565b50505050905090810190601f16801561106e5780820380516001836020036101000a031916815260200191505b50838103825284818151815260200191508051906020019080838360005b838110156110a757808201518184015260208101905061108c565b50505050905090810190601f1680156110d45780820380516001836020036101000a031916815260200191505b509650505050505050600060405180830381600087803b1580156110f757600080fd5b505af115801561110b573d6000803e3d6000fd5b505050507f25ce5e1071030fb8299e174d9208071364b28998163e6f5d0f8315f4e6ba8715836040518082815260200180602001828103825260118152602001807f2056616c6964207375626d697373696f6e0000000000000000000000000000008152506020019250505060405180910390a16002600360009054906101000a900473ffffffffffffffffffffffffffffffffffffffff1673ffffffffffffffffffffffffffffffffffffffff1663c342c6cf83608001516040518263ffffffff1660e01b81526004018080602001828103825283818151815260200191508051906020019080838360005b838110156112135780820151818401526020810190506111f8565b50505050905090810190601f1680156112405780820380516001836020036101000a031916815260200191505b509250505060206040518083038186803b15801561125d57600080fd5b505afa158015611271573d6000803e3d6000fd5b505050506040513d602081101561128757600080fd5b810190808051906020019092919050505014156119e0576000806060600360009054906101000a900473ffffffffffffffffffffffffffffffffffffffff1673ffffffffffffffffffffffffffffffffffffffff1663595807a8856080015160006040518363ffffffff1660e01b81526004018080602001838152602001828103825284818151815260200191508051906020019080838360005b8381101561133d578082015181840152602081019050611322565b50505050905090810190601f16801561136a5780820380516001836020036101000a031916815260200191505b50935050505060006040518083038186803b15801561138857600080fd5b505afa15801561139c573d6000803e3d6000fd5b505050506040513d6000823e3d601f19601f8201168201806040525060608110156113c657600080fd5b81019080805190602001909291908051906020019092919080516401000000008111156113f257600080fd5b8281019050602081018481111561140857600080fd5b815185600182028301116401000000008211171561142557600080fd5b50509291905050509250925092506000806060600360009054906101000a900473ffffffffffffffffffffffffffffffffffffffff1673ffffffffffffffffffffffffffffffffffffffff1663595807a8886080015160016040518363ffffffff1660e01b81526004018080602001838152602001828103825284818151815260200191508051906020019080838360005b838110156114d25780820151818401526020810190506114b7565b50505050905090810190601f1680156114ff5780820380516001836020036101000a031916815260200191505b50935050505060006040518083038186803b15801561151d57600080fd5b505afa158015611531573d6000803e3d6000fd5b505050506040513d6000823e3d601f19601f82011682018060405250606081101561155b57600080fd5b810190808051906020019092919080519060200190929190805164010000000081111561158757600080fd5b8281019050602081018481111561159d57600080fd5b81518560018202830111640100000000821117156115ba57600080fd5b505092919050505092509250925060006116b8600454600260019054906101000a900473ffffffffffffffffffffffffffffffffffffffff1673ffffffffffffffffffffffffffffffffffffffff166370a08231306040518263ffffffff1660e01b8152600401808273ffffffffffffffffffffffffffffffffffffffff1673ffffffffffffffffffffffffffffffffffffffff16815260200191505060206040518083038186803b15801561166f57600080fd5b505afa158015611683573d6000803e3d6000fd5b505050506040513d602081101561169957600080fd5b8101908080519060200190929190505050612dc690919063ffffffff16565b90508260ff168660ff16141561193757600260019054906101000a900473ffffffffffffffffffffffffffffffffffffffff1673ffffffffffffffffffffffffffffffffffffffff1663a9059cbb88836040518363ffffffff1660e01b8152600401808373ffffffffffffffffffffffffffffffffffffffff1673ffffffffffffffffffffffffffffffffffffffff16815260200182815260200192505050602060405180830381600087803b15801561177157600080fd5b505af1158015611785573d6000803e3d6000fd5b505050506040513d602081101561179b57600080fd5b810190808051906020019092919050505050600260019054906101000a900473ffffffffffffffffffffffffffffffffffffffff1673ffffffffffffffffffffffffffffffffffffffff1663a9059cbb85836040518363ffffffff1660e01b8152600401808373ffffffffffffffffffffffffffffffffffffffff1673ffffffffffffffffffffffffffffffffffffffff16815260200182815260200192505050602060405180830381600087803b15801561185657600080fd5b505af115801561186a573d6000803e3d6000fd5b505050506040513d602081101561188057600080fd5b8101908080519060200190929190505050507f58328fe4021b3c8bb896fa3a1c8b5516e7985985b30b8195112987ddec77df7088608001516040518080602001828103825283818151815260200191508051906020019080838360005b838110156118f85780820151818401526020810190506118dd565b50505050905090810190601f1680156119255780820380516001836020036101000a031916815260200191505b509250505060405180910390a16119d8565b7fa08ec646d230e3e0cc258cbc9409da3d22e54fb3de7237615597d90cd22fe9c688608001516040518080602001828103825283818151815260200191508051906020019080838360005b8381101561199d578082015181840152602081019050611982565b50505050905090810190601f1680156119ca5780820380516001836020036101000a031916815260200191505b509250505060405180910390a15b505050505050505b611a56565b7f25ce5e1071030fb8299e174d9208071364b28998163e6f5d0f8315f4e6ba8715836040518082815260200180602001828103825260128152602001807f496e76616c6964207375626d697373696f6e00000000000000000000000000008152506020019250505060405180910390a15b505050565b600260019054906101000a900473ffffffffffffffffffffffffffffffffffffffff1681565b6000600260009054906101000a900460ff16905090565b611aa133612e55565b565b600560009054906101000a900473ffffffffffffffffffffffffffffffffffffffff1673ffffffffffffffffffffffffffffffffffffffff163373ffffffffffffffffffffffffffffffffffffffff1614611b66576040517f08c379a000000000000000000000000000000000000000000000000000000000815260040180806020018281038252600a8152602001807f41646d696e206f6e6c790000000000000000000000000000000000000000000081525060200191505060405180910390fd5b600073ffffffffffffffffffffffffffffffffffffffff168273ffffffffffffffffffffffffffffffffffffffff1614158015611bd05750600073ffffffffffffffffffffffffffffffffffffffff168173ffffffffffffffffffffffffffffffffffffffff1614155b611c42576040517f08c379a000000000000000000000000000000000000000000000000000000000815260040180806020018281038252601a8152602001807f5a65726f20416464726573736573206e6f7420616c6c6f77656400000000000081525060200191505060405180910390fd5b6000836040516020018082805190602001908083835b60208310611c7b5780518252602082019150602081019050602083039250611c58565b6001836020036101000a03801982511681845116808217855250505050505090500191505060405160208183030381529060405280519060200120905080600960008573ffffffffffffffffffffffffffffffffffffffff1673ffffffffffffffffffffffffffffffffffffffff16815260200190815260200160002054148015611d6457508273ffffffffffffffffffffffffffffffffffffffff166008600083815260200190815260200160002060009054906101000a900473ffffffffffffffffffffffffffffffffffffffff1673ffffffffffffffffffffffffffffffffffffffff16145b611dd6576040517f08c379a000000000000000000000000000000000000000000000000000000000815260040180806020018281038252600c8152602001807f4e6f74204d61746368696e67000000000000000000000000000000000000000081525060200191505060405180910390fd5b816008600083815260200190815260200160002060006101000a81548173ffffffffffffffffffffffffffffffffffffffff021916908373ffffffffffffffffffffffffffffffffffffffff160217905550600960008473ffffffffffffffffffffffffffffffffffffffff1673ffffffffffffffffffffffffffffffffffffffff1681526020019081526020016000206000905580600960008473ffffffffffffffffffffffffffffffffffffffff1673ffffffffffffffffffffffffffffffffffffffff168152602001908152602001600020505050505050565b80600073ffffffffffffffffffffffffffffffffffffffff163373ffffffffffffffffffffffffffffffffffffffff161415611f57576040517f08c379a00000000000000000000000000000000000000000000000000000000081526004018080602001828103825260138152602001807f4572726f723a207a65726f20616464726573730000000000000000000000000081525060200191505060405180910390fd5b6000816040516020018082805190602001908083835b60208310611f905780518252602082019150602081019050602083039250611f6d565b6001836020036101000a038019825116818451168082178552505050505050905001915050604051602081830303815290604052805190602001209050600060f81b600960003373ffffffffffffffffffffffffffffffffffffffff1673ffffffffffffffffffffffffffffffffffffffff1681526020019081526020016000205460006020811061201e57fe5b1a60f81b7effffffffffffffffffffffffffffffffffffffffffffffffffffffffffffff19161480156120b05750600073ffffffffffffffffffffffffffffffffffffffff166008600083815260200190815260200160002060009054906101000a900473ffffffffffffffffffffffffffffffffffffffff1673ffffffffffffffffffffffffffffffffffffffff16145b612122576040517f08c379a00000000000000000000000000000000000000000000000000000000081526004018080602001828103825260158152602001807f426c6f636b737461636b2052656769737465726564000000000000000000000081525060200191505060405180910390fd5b6000836040516020018082805190602001908083835b6020831061215b5780518252602082019150602081019050602083039250612138565b6001836020036101000a03801982511681845116808217855250505050505090500191505060405160208183030381529060405280519060200120905080600960003373ffffffffffffffffffffffffffffffffffffffff1673ffffffffffffffffffffffffffffffffffffffff16815260200190815260200160002081905550336008600083815260200190815260200160002060006101000a81548173ffffffffffffffffffffffffffffffffffffffff021916908373ffffffffffffffffffffffffffffffffffffffff16021790555050505050565b61223d33610b3f565b612292576040517f08c379a00000000000000000000000000000000000000000000000000000000081526004018080602001828103825260308152602001806131b96030913960400191505060405180910390fd5b61229b81612eaf565b50565b6122a733610b3f565b6122fc576040517f08c379a00000000000000000000000000000000000000000000000000000000081526004018080602001828103825260308152602001806131b96030913960400191505060405180910390fd5b600260009054906101000a900460ff161561237f576040517f08c379a00000000000000000000000000000000000000000000000000000000081526004018080602001828103825260108152602001807f5061757361626c653a207061757365640000000000000000000000000000000081525060200191505060405180910390fd5b6001600260006101000a81548160ff0219169083151502179055507f62e78cea01bee320cd4e420270b5ea74000d11b0c9f74754ebdbfc544b05a25833604051808273ffffffffffffffffffffffffffffffffffffffff1673ffffffffffffffffffffffffffffffffffffffff16815260200191505060405180910390a1565b6000600454905090565b600560009054906101000a900473ffffffffffffffffffffffffffffffffffffffff1673ffffffffffffffffffffffffffffffffffffffff163373ffffffffffffffffffffffffffffffffffffffff16146124cc576040517f08c379a000000000000000000000000000000000000000000000000000000000815260040180806020018281038252600a8152602001807f41646d696e206f6e6c790000000000000000000000000000000000000000000081525060200191505060405180910390fd5b600260009054906101000a900460ff161561254f576040517f08c379a00000000000000000000000000000000000000000000000000000000081526004018080602001828103825260108152602001807f5061757361626c653a207061757365640000000000000000000000000000000081525060200191505060405180910390fd5b600760008273ffffffffffffffffffffffffffffffffffffffff1673ffffffffffffffffffffffffffffffffffffffff1681526020019081526020016000206000905550565b600560009054906101000a900473ffffffffffffffffffffffffffffffffffffffff1673ffffffffffffffffffffffffffffffffffffffff163373ffffffffffffffffffffffffffffffffffffffff1614612658576040517f08c379a000000000000000000000000000000000000000000000000000000000815260040180806020018281038252600a8152602001807f41646d696e206f6e6c790000000000000000000000000000000000000000000081525060200191505060405180910390fd5b6004548114156126d0576040517f08c379a00000000000000000000000000000000000000000000000000000000081526004018080602001828103825260188152602001807f747279696e6720746f207365742073616d6520726174696f000000000000000081525060200191505060405180910390fd5b806004819055503373ffffffffffffffffffffffffffffffffffffffff167f026742c8bcd6a31c2a334961528522291231502d8fbc59f9a05cb0a510a3ec48826040518082815260200191505060405180910390a250565b816000816040516020018082805190602001908083835b60208310612762578051825260208201915060208101905060208303925061273f565b6001836020036101000a038019825116818451168082178552505050505050905001915050604051602081830303815290604052805190602001209050600073ffffffffffffffffffffffffffffffffffffffff163373ffffffffffffffffffffffffffffffffffffffff16141580156128125750600060f81b816000602081106127e957fe5b1a60f81b7effffffffffffffffffffffffffffffffffffffffffffffffffffffffffffff191614155b612867576040517f08c379a00000000000000000000000000000000000000000000000000000000081526004018080602001828103825260278152602001806131926027913960400191505060405180910390fd5b600960003373ffffffffffffffffffffffffffffffffffffffff1673ffffffffffffffffffffffffffffffffffffffff168152602001908152602001600020548114801561291357506008600082815260200190815260200160002060009054906101000a900473ffffffffffffffffffffffffffffffffffffffff1673ffffffffffffffffffffffffffffffffffffffff163373ffffffffffffffffffffffffffffffffffffffff16145b612985576040517f08c379a000000000000000000000000000000000000000000000000000000000815260040180806020018281038252600c8152602001807f4e6f74204d61746368696e67000000000000000000000000000000000000000081525060200191505060405180910390fd5b60008385336040516020018084805190602001908083835b602083106129c0578051825260208201915060208101905060208303925061299d565b6001836020036101000a03801982511681845116808217855250505050505090500183805190602001908083835b60208310612a1157805182526020820191506020810190506020830392506129ee565b6001836020036101000a0380198251168184511680821785525050505050509050018273ffffffffffffffffffffffffffffffffffffffff1673ffffffffffffffffffffffffffffffffffffffff1660601b815260140193505050506040516020818303038152906040528051906020012090506040518060a001604052803373ffffffffffffffffffffffffffffffffffffffff1681526020018760ff168152602001868152602001600a60ff168152602001858152506006600083815260200190815260200160002060008201518160000160006101000a81548173ffffffffffffffffffffffffffffffffffffffff021916908373ffffffffffffffffffffffffffffffffffffffff16021790555060208201518160000160146101000a81548160ff021916908360ff1602179055506040820151816001019080519060200190612b609291906130ec565b5060608201518160020160006101000a81548160ff021916908360ff1602179055506080820151816003019080519060200190612b9e9291906130ec565b50905050807fbd9ab83400a952f4355f13fb2e722642f91dfa23b2766c6334d5305ecb9131ca8587336040518080602001806020018473ffffffffffffffffffffffffffffffffffffffff1673ffffffffffffffffffffffffffffffffffffffff168152602001838103835286818151815260200191508051906020019080838360005b83811015612c3d578082015181840152602081019050612c22565b50505050905090810190601f168015612c6a5780820380516001836020036101000a031916815260200191505b50838103825285818151815260200191508051906020019080838360005b83811015612ca3578082015181840152602081019050612c88565b50505050905090810190601f168015612cd05780820380516001836020036101000a031916815260200191505b509550505050505060405180910390a2505050505050565b60008073ffffffffffffffffffffffffffffffffffffffff168273ffffffffffffffffffffffffffffffffffffffff161415612d6f576040517f08c379a000000000000000000000000000000000000000000000000000000000815260040180806020018281038252602281526020018061320a6022913960400191505060405180910390fd5b8260000160008373ffffffffffffffffffffffffffffffffffffffff1673ffffffffffffffffffffffffffffffffffffffff16815260200190815260200160002060009054906101000a900460ff16905092915050565b6000808211612e3d576040517f08c379a000000000000000000000000000000000000000000000000000000000815260040180806020018281038252601a8152602001807f536166654d6174683a206469766973696f6e206279207a65726f00000000000081525060200191505060405180910390fd5b6000828481612e4857fe5b0490508091505092915050565b612e69816001612f0990919063ffffffff16565b8073ffffffffffffffffffffffffffffffffffffffff167fcd265ebaf09df2871cc7bd4133404a235ba12eff2041bb89d9c714a2621c7c7e60405160405180910390a250565b612ec3816001612fc690919063ffffffff16565b8073ffffffffffffffffffffffffffffffffffffffff167f6719d08c1888103bea251a4ed56406bd0c3e69723c8a1686e017e7bbe159b6f860405160405180910390a250565b612f138282612ce8565b612f68576040517f08c379a00000000000000000000000000000000000000000000000000000000081526004018080602001828103825260218152602001806131e96021913960400191505060405180910390fd5b60008260000160008373ffffffffffffffffffffffffffffffffffffffff1673ffffffffffffffffffffffffffffffffffffffff16815260200190815260200160002060006101000a81548160ff0219169083151502179055505050565b612fd08282612ce8565b15613043576040517f08c379a000000000000000000000000000000000000000000000000000000000815260040180806020018281038252601f8152602001807f526f6c65733a206163636f756e7420616c72656164792068617320726f6c650081525060200191505060405180910390fd5b60018260000160008373ffffffffffffffffffffffffffffffffffffffff1673ffffffffffffffffffffffffffffffffffffffff16815260200190815260200160002060006101000a81548160ff0219169083151502179055505050565b6040518060a00160405280600073ffffffffffffffffffffffffffffffffffffffff168152602001600060ff16815260200160608152602001600060ff168152602001606081525090565b828054600181600116156101000203166002900490600052602060002090601f016020900481019282601f1061312d57805160ff191683800117855561315b565b8280016001018555821561315b579182015b8281111561315a57825182559160200191906001019061313f565b5b509050613168919061316c565b5090565b61318e91905b8082111561318a576000816000905550600101613172565b5090565b9056fe4572726f723a207a65726f2061646472657373202f7a65726f20626c6f636b737461636b206964506175736572526f6c653a2063616c6c657220646f6573206e6f742068617665207468652050617573657220726f6c65526f6c65733a206163636f756e7420646f6573206e6f74206861766520726f6c65526f6c65733a206163636f756e7420697320746865207a65726f2061646472657373a165627a7a7230582017c3efa9a0c9e0f51a2744d6268bb059681681031131e5062ba9d84d679de36a0029526f6c65733a206163636f756e7420697320746865207a65726f2061646472657373",
  "source": "pragma solidity ^0.5.0;\r\nimport \"./SportupToken.sol\";\r\nimport \"../node_modules/openzeppelin/contracts/math/SafeMath.sol\"; \r\nimport \"../node_modules/openzeppelin/contracts/utils/ReentrancyGuard.sol\";\r\nimport \"../node_modules/openzeppelin/contracts/lifecycle/Pausable.sol\";\r\ncontract SportupResultApp is ReentrancyGuard , Pausable {\r\n    using SafeMath for uint256;\r\n    SportupToken public tokenContract;\r\n    SportupResultData resultDataContract;\r\n\r\n    // Submission Status status codees\r\n    uint8 private constant STATUS_CODE_UNKNOWN = 0;\r\n    uint8 private constant STATUS_CODE_NEW = 10;\r\n    uint8 private constant STATUS_CODE_VALID = 20;\r\n    uint8 private constant STATUS_CODE_INVALID = 30;\r\n    \r\n\r\n  \r\nstruct Submission{\r\n    address submitter;\r\n    uint8 result;\r\n    string blockstack;\r\n    uint8 status;\r\n    string inviteid;\r\n}\r\n    uint256  private _reward_ratio ;\r\n    address private admin ;\r\nmapping (bytes32 => Submission) private result_submitted;\r\nmapping(address => uint256) private authorizedOracles;\r\nmapping(bytes32 =>address) private blockstackIds;\r\nmapping(address => bytes32) private playersAddresses;\r\n/// to improve it use struct later \r\n\r\n \r\nevent OracleRequest(string inviteid,string blockstackid ,address submitter,bytes32 indexed key);\r\nevent SubmissionStatus(bytes32 key,string log);\r\nevent Submited(address indexed submitter,uint8 result, string  blockstack );\r\nevent WinnerMatched( string inviteid );\r\nevent WinnerNotMatched( string inviteid );\r\nevent RewardRatioChanged(address indexed changer,uint256 newRatio);\r\nmodifier onlyOwner() {\r\n        require( msg.sender==admin, \"Admin only\");\r\n        _;\r\n    }\r\n     modifier requireIsOracleAuthorized()\r\n    {\r\n        require(authorizedOracles[msg.sender] == 1, \"Caller is not authorized Oracle\");\r\n        _;\r\n    }\r\n  modifier matchBlockstackidEthAddress(string memory blockstackid) {\r\n     \r\n      bytes32 key = keccak256(abi.encodePacked(blockstackid));\r\n       require(msg.sender != address(0) && key[0] !=0   , \"Error: zero address /zero blockstack id\");\r\n      require(key==playersAddresses[msg.sender] && msg.sender==blockstackIds[key],\"Not Matching\");\r\n_;\r\n  }  \r\n\r\n modifier notRegisteredBlockstackid(string memory blockstackid) {\r\n      require(msg.sender != address(0), \"Error: zero address\");\r\n      bytes32 key = keccak256(abi.encodePacked(blockstackid));\r\n      require (playersAddresses[msg.sender][0]==0 && blockstackIds[key]==address(0),\"Blockstack Registered\");\r\n       \r\n_;\r\n  }  \r\n\r\n   function authorizeOracle (\r\n                                address oracleAddress\r\n                            )\r\n                            external\r\n                            onlyOwner\r\n                            whenNotPaused\r\n    {\r\n        authorizedOracles[oracleAddress] = 1;\r\n    }\r\n \r\n     function deauthorizeOracle\r\n                            (\r\n                                address oracleAddress\r\n                            )\r\n                            external\r\n                          onlyOwner\r\n                            whenNotPaused\r\n    {\r\n        delete authorizedOracles[oracleAddress]; }  \r\n  \r\n\r\n constructor(SportupToken _tokenContract ,SportupResultData _resultDataContract ) public{\r\n\r\n\r\n           admin=msg.sender;\r\n          tokenContract=_tokenContract;\r\n          _reward_ratio=10000;\r\n           tokenContract.approve(msg.sender,(10 ** 9) * (10 ** uint256(18)));  \r\n           resultDataContract=_resultDataContract;        \r\n    }    \r\n\r\nfunction submitt( uint8 result,\r\n    string memory  blockstack,string memory inviteid) matchBlockstackidEthAddress(blockstack) public {\r\n\r\n        bytes32 key = keccak256(abi.encodePacked(inviteid, blockstack, msg.sender));\r\n\r\n        result_submitted[key]=Submission({submitter:msg.sender,result:result,blockstack:blockstack,status:STATUS_CODE_NEW,inviteid:inviteid\r\n\r\n        });\r\n        emit OracleRequest(inviteid,blockstack,msg.sender,key);\r\n\r\n\r\n    }    \r\nfunction oracleResponse(bytes32 key,uint8 status)  requireIsOracleAuthorized public {\r\n    require(result_submitted[key].status==STATUS_CODE_NEW,\"status submitted before\");\r\n    result_submitted[key].status=status;\r\n    Submission memory submission=result_submitted[key];\r\n    emit SubmissionStatus(key,\"first log\");\r\n    if (submission.status==STATUS_CODE_VALID) {\r\n      \r\n        resultDataContract.submit(submission.submitter,submission.result,submission.blockstack,submission.inviteid); \r\n        emit SubmissionStatus(key,\" Valid submission\");\r\n         if (resultDataContract.get_number_of_submissions(submission.inviteid)==2){            \r\n            (address submitter1, uint8 result1, string memory blockstack1)  =resultDataContract.get_submissions(submission.inviteid,0);\r\n             (address submitter2, uint8 result2, string memory blockstack2)  =resultDataContract.get_submissions(submission.inviteid,1);\r\n                    uint256 reward=tokenContract.balanceOf(address(this)).div(_reward_ratio);\r\n                    if( result1== result2){                             \r\n                        tokenContract.transfer(submitter1,reward);\r\n                         tokenContract.transfer(submitter2,reward);\r\n                         emit WinnerMatched(submission.inviteid);\r\n                    }else{\r\n                        emit WinnerNotMatched(submission.inviteid);\r\n                    }\r\n                } \r\n\r\n    }\r\n    else {emit SubmissionStatus(key,\"Invalid submission\");}\r\n    \r\n   }\r\n\r\n  \r\nfunction setRewardRatio(uint256 _newRatio)  onlyOwner() public {\r\n    require(_newRatio != _reward_ratio,\"trying to set same ratio\");\r\n    _reward_ratio=_newRatio;\r\n    emit RewardRatioChanged(msg.sender,_newRatio);\r\n}\r\n   function getRewardRatio( )   public view returns (uint256){\r\n         return _reward_ratio;\r\n         }\r\nfunction addBlockstackID(string memory blockstackid) notRegisteredBlockstackid(blockstackid) public {\r\n bytes32 key = keccak256(abi.encodePacked(blockstackid));\r\n      \r\n\r\n      playersAddresses[msg.sender]=key;\r\n      blockstackIds[key]=msg.sender;\r\n       \r\n}\r\nfunction updateBlockstackEthAddress(string memory blockstackid ,address currentAddress , address newAddress) onlyOwner() public {\r\nrequire(currentAddress !=  address(0) && newAddress != address(0) ,\"Zero Addresses not allowed\");\r\nbytes32 key = keccak256(abi.encodePacked(blockstackid));\r\nrequire (playersAddresses[currentAddress]==key && blockstackIds[key]==currentAddress ,\"Not Matching\" );\r\nblockstackIds[key]=newAddress;\r\ndelete playersAddresses[currentAddress];\r\nplayersAddresses[newAddress]==key;\r\n\r\n}\r\n// blockstackethAddress exist() return bool;\r\n\r\nfunction blockstackethAddressStatus (string memory blockstackid) public view returns(bool){     \r\n      bytes32 key = keccak256(abi.encodePacked(blockstackid));       \r\n      return (key==playersAddresses[msg.sender] && msg.sender==blockstackIds[key]);\r\n}\r\n}\r\n\r\n\r\ncontract SportupResultData  {         \r\n     function submit( address submitter,uint8 result,string calldata  blockstack,  string calldata  inviteid)  external ;\r\n     function get_number_of_submissions(  string calldata  inviteid) external view returns( uint256    );\r\n     function get_submissions(  string calldata  inviteid,uint256 index)   external  view returns( address submitter,   uint8 result,string memory blockstack   );\r\n   }\r\n",
  "sourcePath": "D:/sportup-token/contracts/SportupResultApp.sol",
  "compiler": {
    "name": "solc",
    "version": "0.5.8+commit.23d335f2.Emscripten.clang"
  },
  "schemaVersion": "3.0.16",
  "updatedAt": "2020-01-06T19:56:31.749Z",
  "devdoc": {
    "methods": {
      "pause()": {
        "details": "Called by a pauser to pause, triggers stopped state."
      },
      "paused()": {
        "details": "Returns true if the contract is paused, and false otherwise."
      },
      "unpause()": {
        "details": "Called by a pauser to unpause, returns to normal state."
      }
    }
  },
  "userdoc": {
    "methods": {}
  }
}