{
  "contractName": "Login",
  "abi": [
    {
      "constant": true,
      "inputs": [
        {
          "name": "",
          "type": "address"
        }
      ],
      "name": "IPFSHash",
      "outputs": [
        {
          "name": "",
          "type": "string"
        }
      ],
      "payable": false,
      "stateMutability": "view",
      "type": "function"
    },
    {
      "inputs": [],
      "payable": false,
      "stateMutability": "nonpayable",
      "type": "constructor"
    },
    {
      "constant": false,
      "inputs": [
        {
          "name": "_ipfshash",
          "type": "string"
        }
      ],
      "name": "set_IPFSHash",
      "outputs": [],
      "payable": false,
      "stateMutability": "nonpayable",
      "type": "function"
    },
    {
      "constant": false,
      "inputs": [],
      "name": "get_IPFSHash",
      "outputs": [
        {
          "name": "",
          "type": "string"
        }
      ],
      "payable": false,
      "stateMutability": "nonpayable",
      "type": "function"
    }
  ],
  "bytecode": "0x608060405234801561001057600080fd5b50336000806101000a81548173ffffffffffffffffffffffffffffffffffffffff021916908373ffffffffffffffffffffffffffffffffffffffff160217905550610535806100606000396000f3fe608060405260043610610057576000357c0100000000000000000000000000000000000000000000000000000000900463ffffffff168063ac1309291461005c578063d1cdcf5a146100ec578063d745e31e146101b6575b600080fd5b34801561006857600080fd5b5061007161027e565b6040518080602001828103825283818151815260200191508051906020019080838360005b838110156100b1578082015181840152602081019050610096565b50505050905090810190601f1680156100de5780820380516001836020036101000a031916815260200191505b509250505060405180910390f35b3480156100f857600080fd5b5061013b6004803603602081101561010f57600080fd5b81019080803573ffffffffffffffffffffffffffffffffffffffff16906020019092919050505061035d565b6040518080602001828103825283818151815260200191508051906020019080838360005b8381101561017b578082015181840152602081019050610160565b50505050905090810190601f1680156101a85780820380516001836020036101000a031916815260200191505b509250505060405180910390f35b3480156101c257600080fd5b5061027c600480360360208110156101d957600080fd5b81019080803590602001906401000000008111156101f657600080fd5b82018360208201111561020857600080fd5b8035906020019184600183028401116401000000008311171561022a57600080fd5b91908080601f016020809104026020016040519081016040528093929190818152602001838380828437600081840152601f19601f82011690508083019250505050505050919291929050505061040d565b005b6060600160003373ffffffffffffffffffffffffffffffffffffffff1673ffffffffffffffffffffffffffffffffffffffff1681526020019081526020016000208054600181600116156101000203166002900480601f0160208091040260200160405190810160405280929190818152602001828054600181600116156101000203166002900480156103535780601f1061032857610100808354040283529160200191610353565b820191906000526020600020905b81548152906001019060200180831161033657829003601f168201915b5050505050905090565b60016020528060005260406000206000915090508054600181600116156101000203166002900480601f0160208091040260200160405190810160405280929190818152602001828054600181600116156101000203166002900480156104055780601f106103da57610100808354040283529160200191610405565b820191906000526020600020905b8154815290600101906020018083116103e857829003601f168201915b505050505081565b80600160003373ffffffffffffffffffffffffffffffffffffffff1673ffffffffffffffffffffffffffffffffffffffff1681526020019081526020016000209080519060200190610460929190610464565b5050565b828054600181600116156101000203166002900490600052602060002090601f016020900481019282601f106104a557805160ff19168380011785556104d3565b828001600101855582156104d3579182015b828111156104d25782518255916020019190600101906104b7565b5b5090506104e091906104e4565b5090565b61050691905b808211156105025760008160009055506001016104ea565b5090565b9056fea165627a7a72305820e6a53010e3594a0724d0b4e3b299cb7a72376359ab577716d6e70a2176f41c300029",
  "source": "pragma solidity >=0.4.22 <0.6.0;\n\ncontract Login {\n     address private owner;\n     mapping(address => string) public IPFSHash;   \n    constructor( ) public {\n        owner = msg.sender; \n    }\n    \n    function set_IPFSHash( string memory _ipfshash) public {\n        IPFSHash[msg.sender]=_ipfshash;}        \n  function get_IPFSHash() public returns(string memory ){\n       return IPFSHash[msg.sender];      \n  }\n        \n}\n",
  "sourcePath": "c:/Dev/login/contracts/Login.sol",
  "compiler": {
    "name": "solc",
    "version": "0.5.0+commit.1d4f565a.Emscripten.clang"
  },
  "schemaVersion": "3.0.9",
  "updatedAt": "2019-10-31T11:06:22.431Z",
  "devdoc": {
    "methods": {}
  },
  "userdoc": {
    "methods": {}
  }
}