{
  "contractName": "SportupResultData",
  "abi": [
    {
      "constant": false,
      "inputs": [],
      "name": "unpause",
      "outputs": [],
      "payable": false,
      "stateMutability": "nonpayable",
      "type": "function"
    },
    {
      "constant": true,
      "inputs": [
        {
          "name": "account",
          "type": "address"
        }
      ],
      "name": "isPauser",
      "outputs": [
        {
          "name": "",
          "type": "bool"
        }
      ],
      "payable": false,
      "stateMutability": "view",
      "type": "function"
    },
    {
      "constant": true,
      "inputs": [],
      "name": "paused",
      "outputs": [
        {
          "name": "",
          "type": "bool"
        }
      ],
      "payable": false,
      "stateMutability": "view",
      "type": "function"
    },
    {
      "constant": false,
      "inputs": [],
      "name": "renouncePauser",
      "outputs": [],
      "payable": false,
      "stateMutability": "nonpayable",
      "type": "function"
    },
    {
      "constant": false,
      "inputs": [
        {
          "name": "account",
          "type": "address"
        }
      ],
      "name": "addPauser",
      "outputs": [],
      "payable": false,
      "stateMutability": "nonpayable",
      "type": "function"
    },
    {
      "constant": false,
      "inputs": [],
      "name": "pause",
      "outputs": [],
      "payable": false,
      "stateMutability": "nonpayable",
      "type": "function"
    },
    {
      "inputs": [],
      "payable": false,
      "stateMutability": "nonpayable",
      "type": "constructor"
    },
    {
      "payable": true,
      "stateMutability": "payable",
      "type": "fallback"
    },
    {
      "anonymous": false,
      "inputs": [
        {
          "indexed": true,
          "name": "submitter",
          "type": "address"
        },
        {
          "indexed": false,
          "name": "result",
          "type": "uint8"
        },
        {
          "indexed": false,
          "name": "blockstack",
          "type": "string"
        }
      ],
      "name": "Submited",
      "type": "event"
    },
    {
      "anonymous": false,
      "inputs": [
        {
          "indexed": false,
          "name": "account",
          "type": "address"
        }
      ],
      "name": "Paused",
      "type": "event"
    },
    {
      "anonymous": false,
      "inputs": [
        {
          "indexed": false,
          "name": "account",
          "type": "address"
        }
      ],
      "name": "Unpaused",
      "type": "event"
    },
    {
      "anonymous": false,
      "inputs": [
        {
          "indexed": true,
          "name": "account",
          "type": "address"
        }
      ],
      "name": "PauserAdded",
      "type": "event"
    },
    {
      "anonymous": false,
      "inputs": [
        {
          "indexed": true,
          "name": "account",
          "type": "address"
        }
      ],
      "name": "PauserRemoved",
      "type": "event"
    },
    {
      "constant": false,
      "inputs": [
        {
          "name": "contractAddress",
          "type": "address"
        }
      ],
      "name": "authorizeContract",
      "outputs": [],
      "payable": false,
      "stateMutability": "nonpayable",
      "type": "function"
    },
    {
      "constant": false,
      "inputs": [
        {
          "name": "contractAddress",
          "type": "address"
        }
      ],
      "name": "deauthorizeContract",
      "outputs": [],
      "payable": false,
      "stateMutability": "nonpayable",
      "type": "function"
    },
    {
      "constant": false,
      "inputs": [
        {
          "name": "submitter",
          "type": "address"
        },
        {
          "name": "result",
          "type": "uint8"
        },
        {
          "name": "blockstack",
          "type": "string"
        },
        {
          "name": "inviteid",
          "type": "string"
        }
      ],
      "name": "submit",
      "outputs": [],
      "payable": false,
      "stateMutability": "nonpayable",
      "type": "function"
    },
    {
      "constant": true,
      "inputs": [
        {
          "name": "inviteid",
          "type": "string"
        }
      ],
      "name": "get_number_of_submissions",
      "outputs": [
        {
          "name": "",
          "type": "uint256"
        }
      ],
      "payable": false,
      "stateMutability": "view",
      "type": "function"
    },
    {
      "constant": true,
      "inputs": [
        {
          "name": "inviteid",
          "type": "string"
        },
        {
          "name": "index",
          "type": "uint256"
        }
      ],
      "name": "get_submissions",
      "outputs": [
        {
          "name": "submitter",
          "type": "address"
        },
        {
          "name": "result",
          "type": "uint8"
        },
        {
          "name": "blockstack",
          "type": "string"
        }
      ],
      "payable": false,
      "stateMutability": "view",
      "type": "function"
    }
  ],
  "bytecode": "0x60806040523480156200001157600080fd5b5060016000819055506200002b336200008d60201b60201c565b6000600260006101000a81548160ff02191690831515021790555033600260016101000a81548173ffffffffffffffffffffffffffffffffffffffff021916908373ffffffffffffffffffffffffffffffffffffffff160217905550620002b2565b620000a8816001620000ee60201b620019011790919060201c565b8073ffffffffffffffffffffffffffffffffffffffff167f6719d08c1888103bea251a4ed56406bd0c3e69723c8a1686e017e7bbe159b6f860405160405180910390a250565b620001008282620001d260201b60201c565b1562000174576040517f08c379a000000000000000000000000000000000000000000000000000000000815260040180806020018281038252601f8152602001807f526f6c65733a206163636f756e7420616c72656164792068617320726f6c650081525060200191505060405180910390fd5b60018260000160008373ffffffffffffffffffffffffffffffffffffffff1673ffffffffffffffffffffffffffffffffffffffff16815260200190815260200160002060006101000a81548160ff0219169083151502179055505050565b60008073ffffffffffffffffffffffffffffffffffffffff168273ffffffffffffffffffffffffffffffffffffffff1614156200025b576040517f08c379a000000000000000000000000000000000000000000000000000000000815260040180806020018281038252602281526020018062001e286022913960400191505060405180910390fd5b8260000160008373ffffffffffffffffffffffffffffffffffffffff1673ffffffffffffffffffffffffffffffffffffffff16815260200190815260200160002060009054906101000a900460ff16905092915050565b611b6680620002c26000396000f3fe60806040526004361061009c5760003560e01c80636e861c0e116100645780636e861c0e146102e75780636ef8d66d1461033857806382dc1ec41461034f5780638456cb59146103a05780638914e1d9146103b7578063c342c6cf146104bf5761009c565b80633f4ba83a1461009e57806346fbf68e146100b5578063595807a81461011e5780635c975abb1461026757806367561d9314610296575b005b3480156100aa57600080fd5b506100b3610559565b005b3480156100c157600080fd5b50610104600480360360208110156100d857600080fd5b81019080803573ffffffffffffffffffffffffffffffffffffffff1690602001909291905050506106b9565b604051808215151515815260200191505060405180910390f35b34801561012a57600080fd5b506101ac6004803603604081101561014157600080fd5b810190808035906020019064010000000081111561015e57600080fd5b82018360208201111561017057600080fd5b8035906020019184600183028401116401000000008311171561019257600080fd5b9091929391929390803590602001909291905050506106d6565b604051808473ffffffffffffffffffffffffffffffffffffffff1673ffffffffffffffffffffffffffffffffffffffff1681526020018360ff1660ff16815260200180602001828103825283818151815260200191508051906020019080838360005b8381101561022a57808201518184015260208101905061020f565b50505050905090810190601f1680156102575780820380516001836020036101000a031916815260200191505b5094505050505060405180910390f35b34801561027357600080fd5b5061027c610a38565b604051808215151515815260200191505060405180910390f35b3480156102a257600080fd5b506102e5600480360360208110156102b957600080fd5b81019080803573ffffffffffffffffffffffffffffffffffffffff169060200190929190505050610a4f565b005b3480156102f357600080fd5b506103366004803603602081101561030a57600080fd5b81019080803573ffffffffffffffffffffffffffffffffffffffff169060200190929190505050610bdd565b005b34801561034457600080fd5b5061034d610d69565b005b34801561035b57600080fd5b5061039e6004803603602081101561037257600080fd5b81019080803573ffffffffffffffffffffffffffffffffffffffff169060200190929190505050610d74565b005b3480156103ac57600080fd5b506103b5610dde565b005b3480156103c357600080fd5b506104bd600480360360808110156103da57600080fd5b81019080803573ffffffffffffffffffffffffffffffffffffffff169060200190929190803560ff1690602001909291908035906020019064010000000081111561042457600080fd5b82018360208201111561043657600080fd5b8035906020019184600183028401116401000000008311171561045857600080fd5b90919293919293908035906020019064010000000081111561047957600080fd5b82018360208201111561048b57600080fd5b803590602001918460018302840111640100000000831117156104ad57600080fd5b9091929391929390505050610f3f565b005b3480156104cb57600080fd5b50610543600480360360208110156104e257600080fd5b81019080803590602001906401000000008111156104ff57600080fd5b82018360208201111561051157600080fd5b8035906020019184600183028401116401000000008311171561053357600080fd5b9091929391929390505050611380565b6040518082815260200191505060405180910390f35b610562336106b9565b6105b7576040517f08c379a0000000000000000000000000000000000000000000000000000000008152600401808060200182810382526030815260200180611aa76030913960400191505060405180910390fd5b600260009054906101000a900460ff16610639576040517f08c379a00000000000000000000000000000000000000000000000000000000081526004018080602001828103825260148152602001807f5061757361626c653a206e6f742070617573656400000000000000000000000081525060200191505060405180910390fd5b6000600260006101000a81548160ff0219169083151502179055507f5db9ee0a495bf2e6ff9c91a7834c1ba4fdd244a5e8aa4e537bd38aeae4b073aa33604051808273ffffffffffffffffffffffffffffffffffffffff1673ffffffffffffffffffffffffffffffffffffffff16815260200191505060405180910390a1565b60006106cf8260016114d090919063ffffffff16565b9050919050565b6000806060600260009054906101000a900460ff161561075e576040517f08c379a00000000000000000000000000000000000000000000000000000000081526004018080602001828103825260108152602001807f5061757361626c653a207061757365640000000000000000000000000000000081525060200191505060405180910390fd5b6001600460003373ffffffffffffffffffffffffffffffffffffffff1673ffffffffffffffffffffffffffffffffffffffff16815260200190815260200160002054146107f6576040517f08c379a0000000000000000000000000000000000000000000000000000000008152600401808060200182810382526021815260200180611ad76021913960400191505060405180910390fd5b836003878760405180838380828437808301925050509250505090815260200160405180910390208054905011610895576040517f08c379a000000000000000000000000000000000000000000000000000000000815260040180806020018281038252600d8152602001807f696e76616c696420696e6465780000000000000000000000000000000000000081525060200191505060405180910390fd5b60038686604051808383808284378083019250505092505050908152602001604051809103902084815481106108c757fe5b906000526020600020906002020160000160009054906101000a900473ffffffffffffffffffffffffffffffffffffffff16600387876040518083838082843780830192505050925050509081526020016040518091039020858154811061092b57fe5b906000526020600020906002020160000160149054906101000a900460ff16600388886040518083838082843780830192505050925050509081526020016040518091039020868154811061097c57fe5b9060005260206000209060020201600101808054600181600116156101000203166002900480601f016020809104026020016040519081016040528092919081815260200182805460018160011615610100020316600290048015610a225780601f106109f757610100808354040283529160200191610a22565b820191906000526020600020905b815481529060010190602001808311610a0557829003601f168201915b5050505050905092509250925093509350939050565b6000600260009054906101000a900460ff16905090565b600260019054906101000a900473ffffffffffffffffffffffffffffffffffffffff1673ffffffffffffffffffffffffffffffffffffffff163373ffffffffffffffffffffffffffffffffffffffff1614610b12576040517f08c379a000000000000000000000000000000000000000000000000000000000815260040180806020018281038252600a8152602001807f41646d696e206f6e6c790000000000000000000000000000000000000000000081525060200191505060405180910390fd5b600260009054906101000a900460ff1615610b95576040517f08c379a00000000000000000000000000000000000000000000000000000000081526004018080602001828103825260108152602001807f5061757361626c653a207061757365640000000000000000000000000000000081525060200191505060405180910390fd5b6001600460008373ffffffffffffffffffffffffffffffffffffffff1673ffffffffffffffffffffffffffffffffffffffff1681526020019081526020016000208190555050565b600260019054906101000a900473ffffffffffffffffffffffffffffffffffffffff1673ffffffffffffffffffffffffffffffffffffffff163373ffffffffffffffffffffffffffffffffffffffff1614610ca0576040517f08c379a000000000000000000000000000000000000000000000000000000000815260040180806020018281038252600a8152602001807f41646d696e206f6e6c790000000000000000000000000000000000000000000081525060200191505060405180910390fd5b600260009054906101000a900460ff1615610d23576040517f08c379a00000000000000000000000000000000000000000000000000000000081526004018080602001828103825260108152602001807f5061757361626c653a207061757365640000000000000000000000000000000081525060200191505060405180910390fd5b600460008273ffffffffffffffffffffffffffffffffffffffff1673ffffffffffffffffffffffffffffffffffffffff1681526020019081526020016000206000905550565b610d72336115ae565b565b610d7d336106b9565b610dd2576040517f08c379a0000000000000000000000000000000000000000000000000000000008152600401808060200182810382526030815260200180611aa76030913960400191505060405180910390fd5b610ddb81611608565b50565b610de7336106b9565b610e3c576040517f08c379a0000000000000000000000000000000000000000000000000000000008152600401808060200182810382526030815260200180611aa76030913960400191505060405180910390fd5b600260009054906101000a900460ff1615610ebf576040517f08c379a00000000000000000000000000000000000000000000000000000000081526004018080602001828103825260108152602001807f5061757361626c653a207061757365640000000000000000000000000000000081525060200191505060405180910390fd5b6001600260006101000a81548160ff0219169083151502179055507f62e78cea01bee320cd4e420270b5ea74000d11b0c9f74754ebdbfc544b05a25833604051808273ffffffffffffffffffffffffffffffffffffffff1673ffffffffffffffffffffffffffffffffffffffff16815260200191505060405180910390a1565b600260009054906101000a900460ff1615610fc2576040517f08c379a00000000000000000000000000000000000000000000000000000000081526004018080602001828103825260108152602001807f5061757361626c653a207061757365640000000000000000000000000000000081525060200191505060405180910390fd5b6001600460003373ffffffffffffffffffffffffffffffffffffffff1673ffffffffffffffffffffffffffffffffffffffff168152602001908152602001600020541461105a576040517f08c379a0000000000000000000000000000000000000000000000000000000008152600401808060200182810382526021815260200180611ad76021913960400191505060405180910390fd5b60016003838360405180838380828437808301925050509250505090815260200160405180910390208054905011156110fb576040517f08c379a000000000000000000000000000000000000000000000000000000000815260040180806020018281038252601a8152602001807f63616e206e6f74207375626d6974206d6f7265207468616e203100000000000081525060200191505060405180910390fd5b6111498683838080601f016020809104026020016040519081016040528093929190818152602001838380828437600081840152601f19601f82011690508083019250505050505050611662565b61119e576040517f08c379a0000000000000000000000000000000000000000000000000000000008152600401808060200182810382526025815260200180611a826025913960400191505060405180910390fd5b60038282604051808383808284378083019250505092505050908152602001604051809103902060405180606001604052808873ffffffffffffffffffffffffffffffffffffffff1681526020018760ff16815260200186868080601f016020809104026020016040519081016040528093929190818152602001838380828437600081840152601f19601f820116905080830192505050505050508152509080600181540180825580915050906001820390600052602060002090600202016000909192909190915060008201518160000160006101000a81548173ffffffffffffffffffffffffffffffffffffffff021916908373ffffffffffffffffffffffffffffffffffffffff16021790555060208201518160000160146101000a81548160ff021916908360ff16021790555060408201518160010190805190602001906112ec9291906119dc565b505050508573ffffffffffffffffffffffffffffffffffffffff167fbb35c46ff7ece5a46ec58f69c43293bcad9db50049406784b792c601a71568ff868686604051808460ff1660ff168152602001806020018281038252848482818152602001925080828437600081840152601f19601f82011690508083019250505094505050505060405180910390a2505050505050565b6000600260009054906101000a900460ff1615611405576040517f08c379a00000000000000000000000000000000000000000000000000000000081526004018080602001828103825260108152602001807f5061757361626c653a207061757365640000000000000000000000000000000081525060200191505060405180910390fd5b6001600460003373ffffffffffffffffffffffffffffffffffffffff1673ffffffffffffffffffffffffffffffffffffffff168152602001908152602001600020541461149d576040517f08c379a0000000000000000000000000000000000000000000000000000000008152600401808060200182810382526021815260200180611ad76021913960400191505060405180910390fd5b60038383604051808383808284378083019250505092505050908152602001604051809103902080549050905092915050565b60008073ffffffffffffffffffffffffffffffffffffffff168273ffffffffffffffffffffffffffffffffffffffff161415611557576040517f08c379a0000000000000000000000000000000000000000000000000000000008152600401808060200182810382526022815260200180611b196022913960400191505060405180910390fd5b8260000160008373ffffffffffffffffffffffffffffffffffffffff1673ffffffffffffffffffffffffffffffffffffffff16815260200190815260200160002060009054906101000a900460ff16905092915050565b6115c281600161184490919063ffffffff16565b8073ffffffffffffffffffffffffffffffffffffffff167fcd265ebaf09df2871cc7bd4133404a235ba12eff2041bb89d9c714a2621c7c7e60405160405180910390a250565b61161c81600161190190919063ffffffff16565b8073ffffffffffffffffffffffffffffffffffffffff167f6719d08c1888103bea251a4ed56406bd0c3e69723c8a1686e017e7bbe159b6f860405160405180910390a250565b6000600260009054906101000a900460ff16156116e7576040517f08c379a00000000000000000000000000000000000000000000000000000000081526004018080602001828103825260108152602001807f5061757361626c653a207061757365640000000000000000000000000000000081525060200191505060405180910390fd5b60016003836040518082805190602001908083835b6020831061171f57805182526020820191506020810190506020830392506116fc565b6001836020036101000a0380198251168184511680821785525050505050509050019150509081526020016040518091039020805490501415611839578273ffffffffffffffffffffffffffffffffffffffff166003836040518082805190602001908083835b602083106117a95780518252602082019150602081019050602083039250611786565b6001836020036101000a03801982511681845116808217855250505050505090500191505090815260200160405180910390206000815481106117e857fe5b906000526020600020906002020160000160009054906101000a900473ffffffffffffffffffffffffffffffffffffffff1673ffffffffffffffffffffffffffffffffffffffff161415905061183e565b600190505b92915050565b61184e82826114d0565b6118a3576040517f08c379a0000000000000000000000000000000000000000000000000000000008152600401808060200182810382526021815260200180611af86021913960400191505060405180910390fd5b60008260000160008373ffffffffffffffffffffffffffffffffffffffff1673ffffffffffffffffffffffffffffffffffffffff16815260200190815260200160002060006101000a81548160ff0219169083151502179055505050565b61190b82826114d0565b1561197e576040517f08c379a000000000000000000000000000000000000000000000000000000000815260040180806020018281038252601f8152602001807f526f6c65733a206163636f756e7420616c72656164792068617320726f6c650081525060200191505060405180910390fd5b60018260000160008373ffffffffffffffffffffffffffffffffffffffff1673ffffffffffffffffffffffffffffffffffffffff16815260200190815260200160002060006101000a81548160ff0219169083151502179055505050565b828054600181600116156101000203166002900490600052602060002090601f016020900481019282601f10611a1d57805160ff1916838001178555611a4b565b82800160010185558215611a4b579182015b82811115611a4a578251825591602001919060010190611a2f565b5b509050611a589190611a5c565b5090565b611a7e91905b80821115611a7a576000816000905550600101611a62565b5090565b9056fe75736572207375626d697474656420726573756c74206f6620676976656e20696e76697465506175736572526f6c653a2063616c6c657220646f6573206e6f742068617665207468652050617573657220726f6c6543616c6c6572206973206e6f7420617574686f72697a656420636f6e7472616374526f6c65733a206163636f756e7420646f6573206e6f74206861766520726f6c65526f6c65733a206163636f756e7420697320746865207a65726f2061646472657373a165627a7a7230582083837419120ee4a655a19a9c8be87b462502f8cdd951d723694b752b774da7570029526f6c65733a206163636f756e7420697320746865207a65726f2061646472657373",
  "source": "pragma solidity ^0.5.0;\r\nimport \"../node_modules/openzeppelin/contracts/math/SafeMath.sol\"; \r\nimport \"../node_modules/openzeppelin/contracts/utils/ReentrancyGuard.sol\";\r\nimport \"../node_modules/openzeppelin/contracts/lifecycle/Pausable.sol\";\r\ncontract SportupResultData is ReentrancyGuard , Pausable {\r\n    using SafeMath for uint256;\r\n    struct  submitted_result {\r\n        address submitter;\r\n        uint8 result;//winner\r\n        string blockstack;\r\n        }\r\n    address private admin ;\r\n    mapping (string => submitted_result[] )private invites;\r\n    mapping(address => uint256) private authorizedContracts;\r\n    modifier onlyOwner() {require( msg.sender==admin, \"Admin only\");\r\n     _;\r\n    } \r\n   modifier requireIsCallerAuthorized()\r\n    {\r\n        require(authorizedContracts[msg.sender] == 1, \"Caller is not authorized contract\");\r\n        _;\r\n    }\r\n    event Submited(address indexed submitter,uint8 result, string  blockstack );\r\n  \r\nfunction authorizeContract (\r\n                                address contractAddress\r\n                            )\r\n                            external\r\n                            onlyOwner\r\n                            whenNotPaused\r\n    {\r\n        authorizedContracts[contractAddress] = 1;\r\n    }\r\n\r\n     function deauthorizeContract\r\n                            (\r\n                                address contractAddress\r\n                            )\r\n                            external\r\n                          onlyOwner\r\n                            whenNotPaused\r\n    {\r\n        delete authorizedContracts[contractAddress]; }  \r\n \r\n       constructor() public{\r\n           admin=msg.sender;                 \r\n    }\r\n    /**\r\n     * @dev fallback function ***DO NOT OVERRIDE***\r\n     * Note that other contracts will transfer funds with a base gas stipend\r\n     * of 2300, which is not enough to call buyTokens. Consider calling\r\n     * buyTokens directly when purchasing tokens from a contract.\r\n     */\r\n    function () external payable {\r\n       // buyTokens(msg.sender);\r\n    }\r\n    function allowSubmission (address submitter,string memory inviteid) whenNotPaused internal \r\n    returns(bool){\r\n       if (invites[inviteid].length==1){ return invites[inviteid][0].submitter != submitter;               } \r\n     return true;\r\n    }    \r\n     function submit( address submitter,uint8 result,string calldata  blockstack,  string calldata  inviteid) whenNotPaused requireIsCallerAuthorized external \r\n        {\r\n                require (invites[inviteid].length<=1,\"can not submit more than 1\") ;\r\n                // check if current address submited a result before \r\n                require(allowSubmission(submitter,inviteid),\"user submitted result of given invite\");\r\n                    invites[inviteid].push(submitted_result(submitter,result,blockstack));\r\n                   emit  Submited(submitter,result,blockstack);\r\n               \r\n                } \r\n       \r\n        function get_number_of_submissions(  string calldata  inviteid)  whenNotPaused requireIsCallerAuthorized external view returns( uint256    ){\r\n            return  invites[inviteid].length;\r\n        }\r\n   function get_submissions(  string calldata  inviteid,uint256 index)  whenNotPaused requireIsCallerAuthorized external  view returns( address submitter,   uint8 result,string memory blockstack   ){\r\n             require (  invites[inviteid].length > index,\"invalid index\");\r\n            return ( invites[inviteid][index].submitter,invites[inviteid][index].result,invites[inviteid][index].blockstack);\r\n        }  \r\n \r\n}\r\n",
  "sourcePath": "D:/sportup-token/contracts/SportupResultData.sol",
  "compiler": {
    "name": "solc",
    "version": "0.5.8+commit.23d335f2.Emscripten.clang"
  },
  "schemaVersion": "3.0.16",
  "updatedAt": "2020-01-06T19:56:31.734Z",
  "devdoc": {
    "methods": {
      "pause()": {
        "details": "Called by a pauser to pause, triggers stopped state."
      },
      "paused()": {
        "details": "Returns true if the contract is paused, and false otherwise."
      },
      "unpause()": {
        "details": "Called by a pauser to unpause, returns to normal state."
      }
    }
  },
  "userdoc": {
    "methods": {}
  }
}