{
  "contractName": "Doc_translation",
  "abi": [
    {
      "inputs": [],
      "payable": false,
      "stateMutability": "nonpayable",
      "type": "constructor"
    },
    {
      "anonymous": false,
      "inputs": [
        {
          "indexed": true,
          "name": "_from",
          "type": "address"
        },
        {
          "indexed": false,
          "name": "_language",
          "type": "string"
        },
        {
          "indexed": false,
          "name": "_ipfs",
          "type": "string"
        },
        {
          "indexed": false,
          "name": "_title",
          "type": "string"
        },
        {
          "indexed": false,
          "name": "_author",
          "type": "string"
        },
        {
          "indexed": true,
          "name": "_doc_id",
          "type": "uint256"
        }
      ],
      "name": "CreateDocument",
      "type": "event"
    },
    {
      "constant": false,
      "inputs": [
        {
          "name": "_doc_id",
          "type": "uint256"
        },
        {
          "name": "_language",
          "type": "string"
        },
        {
          "name": "_ipfs",
          "type": "string"
        },
        {
          "name": "_title",
          "type": "string"
        },
        {
          "name": "_author",
          "type": "string"
        }
      ],
      "name": "createDocument",
      "outputs": [],
      "payable": false,
      "stateMutability": "nonpayable",
      "type": "function"
    },
    {
      "constant": false,
      "inputs": [
        {
          "name": "_parg_id",
          "type": "uint256"
        },
        {
          "name": "_doc_id",
          "type": "uint256"
        },
        {
          "name": "_sequnce",
          "type": "uint256"
        },
        {
          "name": "_ipfs",
          "type": "string"
        }
      ],
      "name": "createPragraphe",
      "outputs": [],
      "payable": false,
      "stateMutability": "nonpayable",
      "type": "function"
    },
    {
      "constant": false,
      "inputs": [
        {
          "name": "_tran_id",
          "type": "uint256"
        },
        {
          "name": "_parg_id",
          "type": "uint256"
        },
        {
          "name": "_language",
          "type": "string"
        },
        {
          "name": "_ipfs",
          "type": "string"
        },
        {
          "name": "_title",
          "type": "string"
        },
        {
          "name": "_translator",
          "type": "string"
        }
      ],
      "name": "createTranslatation",
      "outputs": [],
      "payable": false,
      "stateMutability": "nonpayable",
      "type": "function"
    },
    {
      "constant": true,
      "inputs": [],
      "name": "ListDocuments",
      "outputs": [
        {
          "name": "",
          "type": "uint256[]"
        }
      ],
      "payable": false,
      "stateMutability": "view",
      "type": "function"
    },
    {
      "constant": true,
      "inputs": [
        {
          "name": "_doc_id",
          "type": "uint256"
        }
      ],
      "name": "getDocument",
      "outputs": [
        {
          "name": "",
          "type": "string"
        },
        {
          "name": "",
          "type": "string"
        },
        {
          "name": "",
          "type": "string"
        },
        {
          "name": "",
          "type": "string"
        }
      ],
      "payable": false,
      "stateMutability": "view",
      "type": "function"
    },
    {
      "constant": true,
      "inputs": [
        {
          "name": "_tran_id",
          "type": "uint256"
        }
      ],
      "name": "getTranslation",
      "outputs": [
        {
          "name": "",
          "type": "string"
        },
        {
          "name": "",
          "type": "string"
        },
        {
          "name": "",
          "type": "string"
        },
        {
          "name": "",
          "type": "string"
        }
      ],
      "payable": false,
      "stateMutability": "view",
      "type": "function"
    },
    {
      "constant": true,
      "inputs": [
        {
          "name": "_doc_id",
          "type": "uint256"
        }
      ],
      "name": "getDocumentParagraphes",
      "outputs": [
        {
          "name": "",
          "type": "uint256[]"
        }
      ],
      "payable": false,
      "stateMutability": "view",
      "type": "function"
    },
    {
      "constant": true,
      "inputs": [
        {
          "name": "_parg_id",
          "type": "uint256"
        }
      ],
      "name": "getParagrapheTranslatations",
      "outputs": [
        {
          "name": "",
          "type": "uint256[]"
        }
      ],
      "payable": false,
      "stateMutability": "view",
      "type": "function"
    }
  ],
  "bytecode": "0x608060405234801561001057600080fd5b50336000806101000a81548173ffffffffffffffffffffffffffffffffffffffff021916908373ffffffffffffffffffffffffffffffffffffffff16021790555061184e806100606000396000f30060806040526004361061008e576000357c0100000000000000000000000000000000000000000000000000000000900463ffffffff16806316e4e35514610093578063189ccf4f146101155780633391a233146102ff5780633686e0601461044e5780633f9b250a146104d5578063c4965bf4146106bf578063cb4d526514610804578063fd153d4414610886575b600080fd5b34801561009f57600080fd5b506100be600480360381019080803590602001909291905050506108f2565b6040518080602001828103825283818151815260200191508051906020019060200280838360005b838110156101015780820151818401526020810190506100e6565b505050509050019250505060405180910390f35b34801561012157600080fd5b5061014060048036038101908080359060200190929190505050610960565b6040518080602001806020018060200180602001858103855289818151815260200191508051906020019080838360005b8381101561018c578082015181840152602081019050610171565b50505050905090810190601f1680156101b95780820380516001836020036101000a031916815260200191505b50858103845288818151815260200191508051906020019080838360005b838110156101f25780820151818401526020810190506101d7565b50505050905090810190601f16801561021f5780820380516001836020036101000a031916815260200191505b50858103835287818151815260200191508051906020019080838360005b8381101561025857808201518184015260208101905061023d565b50505050905090810190601f1680156102855780820380516001836020036101000a031916815260200191505b50858103825286818151815260200191508051906020019080838360005b838110156102be5780820151818401526020810190506102a3565b50505050905090810190601f1680156102eb5780820380516001836020036101000a031916815260200191505b509850505050505050505060405180910390f35b34801561030b57600080fd5b5061044c6004803603810190808035906020019092919080359060200190929190803590602001908201803590602001908080601f0160208091040260200160405190810160405280939291908181526020018383808284378201915050505050509192919290803590602001908201803590602001908080601f0160208091040260200160405190810160405280939291908181526020018383808284378201915050505050509192919290803590602001908201803590602001908080601f0160208091040260200160405190810160405280939291908181526020018383808284378201915050505050509192919290803590602001908201803590602001908080601f0160208091040260200160405190810160405280939291908181526020018383808284378201915050505050509192919290505050610c47565b005b34801561045a57600080fd5b506104d3600480360381019080803590602001909291908035906020019092919080359060200190929190803590602001908201803590602001908080601f0160208091040260200160405190810160405280939291908181526020018383808284378201915050505050509192919290505050610dd6565b005b3480156104e157600080fd5b5061050060048036038101908080359060200190929190505050610f55565b6040518080602001806020018060200180602001858103855289818151815260200191508051906020019080838360005b8381101561054c578082015181840152602081019050610531565b50505050905090810190601f1680156105795780820380516001836020036101000a031916815260200191505b50858103845288818151815260200191508051906020019080838360005b838110156105b2578082015181840152602081019050610597565b50505050905090810190601f1680156105df5780820380516001836020036101000a031916815260200191505b50858103835287818151815260200191508051906020019080838360005b838110156106185780820151818401526020810190506105fd565b50505050905090810190601f1680156106455780820380516001836020036101000a031916815260200191505b50858103825286818151815260200191508051906020019080838360005b8381101561067e578082015181840152602081019050610663565b50505050905090810190601f1680156106ab5780820380516001836020036101000a031916815260200191505b509850505050505050505060405180910390f35b3480156106cb57600080fd5b5061080260048036038101908080359060200190929190803590602001908201803590602001908080601f0160208091040260200160405190810160405280939291908181526020018383808284378201915050505050509192919290803590602001908201803590602001908080601f0160208091040260200160405190810160405280939291908181526020018383808284378201915050505050509192919290803590602001908201803590602001908080601f0160208091040260200160405190810160405280939291908181526020018383808284378201915050505050509192919290803590602001908201803590602001908080601f016020809104026020016040519081016040528093929190818152602001838380828437820191505050505050919291929050505061123c565b005b34801561081057600080fd5b5061082f6004803603810190808035906020019092919050505061164b565b6040518080602001828103825283818151815260200191508051906020019060200280838360005b83811015610872578082015181840152602081019050610857565b505050509050019250505060405180910390f35b34801561089257600080fd5b5061089b6116b9565b6040518080602001828103825283818151815260200191508051906020019060200280838360005b838110156108de5780820151818401526020810190506108c3565b505050509050019250505060405180910390f35b60606006600083815260200190815260200160002060000180548060200260200160405190810160405280929190818152602001828054801561095457602002820191906000526020600020905b815481526020019060010190808311610940575b50505050509050919050565b60608060608061096e611711565b6004600087815260200190815260200160002060806040519081016040529081600082018054600181600116156101000203166002900480601f016020809104026020016040519081016040528092919081815260200182805460018160011615610100020316600290048015610a265780601f106109fb57610100808354040283529160200191610a26565b820191906000526020600020905b815481529060010190602001808311610a0957829003601f168201915b50505050508152602001600182018054600181600116156101000203166002900480601f016020809104026020016040519081016040528092919081815260200182805460018160011615610100020316600290048015610ac85780601f10610a9d57610100808354040283529160200191610ac8565b820191906000526020600020905b815481529060010190602001808311610aab57829003601f168201915b50505050508152602001600282018054600181600116156101000203166002900480601f016020809104026020016040519081016040528092919081815260200182805460018160011615610100020316600290048015610b6a5780601f10610b3f57610100808354040283529160200191610b6a565b820191906000526020600020905b815481529060010190602001808311610b4d57829003601f168201915b50505050508152602001600382018054600181600116156101000203166002900480601f016020809104026020016040519081016040528092919081815260200182805460018160011615610100020316600290048015610c0c5780601f10610be157610100808354040283529160200191610c0c565b820191906000526020600020905b815481529060010190602001808311610bef57829003601f168201915b505050505081525050905080600001518160200151826040015183606001518393508292508191508090509450945094509450509193509193565b610c4f611711565b6000600360008881526020019081526020016000206001015414151515610cde576040517f08c379a00000000000000000000000000000000000000000000000000000000081526004018080602001828103825260088152602001807f657869737420696400000000000000000000000000000000000000000000000081525060200191505060405180910390fd5b60806040519081016040528086815260200185815260200184815260200183815250905080600460008981526020019081526020016000206000820151816000019080519060200190610d3292919061173a565b506020820151816001019080519060200190610d4f92919061173a565b506040820151816002019080519060200190610d6c92919061173a565b506060820151816003019080519060200190610d8992919061173a565b509050506006600087815260200190815260200160002060000187908060018154018082558091505090600182039060005260206000200160009091929091909150555050505050505050565b610dde6117ba565b600073ffffffffffffffffffffffffffffffffffffffff166001600086815260200190815260200160002060009054906101000a900473ffffffffffffffffffffffffffffffffffffffff1673ffffffffffffffffffffffffffffffffffffffff1614151515610eb6576040517f08c379a000000000000000000000000000000000000000000000000000000000815260040180806020018281038252600c8152602001807f6e6f74206578697374206964000000000000000000000000000000000000000081525060200191505060405180910390fd5b604080519081016040528083815260200160018501815250905080600360008781526020019081526020016000206000820151816000019080519060200190610f0092919061173a565b5060208201518160010155905050600560008581526020019081526020016000206000018590806001815401808255809150509060018203906000526020600020016000909192909190915055505050505050565b606080606080610f636117d4565b6002600087815260200190815260200160002060806040519081016040529081600082018054600181600116156101000203166002900480601f01602080910402602001604051908101604052809291908181526020018280546001816001161561010002031660029004801561101b5780601f10610ff05761010080835404028352916020019161101b565b820191906000526020600020905b815481529060010190602001808311610ffe57829003601f168201915b50505050508152602001600182018054600181600116156101000203166002900480601f0160208091040260200160405190810160405280929190818152602001828054600181600116156101000203166002900480156110bd5780601f10611092576101008083540402835291602001916110bd565b820191906000526020600020905b8154815290600101906020018083116110a057829003601f168201915b50505050508152602001600282018054600181600116156101000203166002900480601f01602080910402602001604051908101604052809291908181526020018280546001816001161561010002031660029004801561115f5780601f106111345761010080835404028352916020019161115f565b820191906000526020600020905b81548152906001019060200180831161114257829003601f168201915b50505050508152602001600382018054600181600116156101000203166002900480601f0160208091040260200160405190810160405280929190818152602001828054600181600116156101000203166002900480156112015780601f106111d657610100808354040283529160200191611201565b820191906000526020600020905b8154815290600101906020018083116111e457829003601f168201915b505050505081525050905080600001518160200151826040015183606001518393508292508191508090509450945094509450509193509193565b6112446117d4565b600073ffffffffffffffffffffffffffffffffffffffff166001600088815260200190815260200160002060009054906101000a900473ffffffffffffffffffffffffffffffffffffffff1673ffffffffffffffffffffffffffffffffffffffff1614151561131b576040517f08c379a00000000000000000000000000000000000000000000000000000000081526004018080602001828103825260088152602001807f657869737420696400000000000000000000000000000000000000000000000081525060200191505060405180910390fd5b608060405190810160405280868152602001858152602001848152602001838152509050336001600088815260200190815260200160002060006101000a81548173ffffffffffffffffffffffffffffffffffffffff021916908373ffffffffffffffffffffffffffffffffffffffff160217905550806002600088815260200190815260200160002060008201518160000190805190602001906113c192919061173a565b5060208201518160010190805190602001906113de92919061173a565b5060408201518160020190805190602001906113fb92919061173a565b50606082015181600301908051906020019061141892919061173a565b509050506007869080600181540180825580915050906001820390600052602060002001600090919290919091505550853373ffffffffffffffffffffffffffffffffffffffff167f42b569e1be1a8c2e8a22b21da9841ae3d54afe083bf36b49b57a48f85dd6aa73878787876040518080602001806020018060200180602001858103855289818151815260200191508051906020019080838360005b838110156114d15780820151818401526020810190506114b6565b50505050905090810190601f1680156114fe5780820380516001836020036101000a031916815260200191505b50858103845288818151815260200191508051906020019080838360005b8381101561153757808201518184015260208101905061151c565b50505050905090810190601f1680156115645780820380516001836020036101000a031916815260200191505b50858103835287818151815260200191508051906020019080838360005b8381101561159d578082015181840152602081019050611582565b50505050905090810190601f1680156115ca5780820380516001836020036101000a031916815260200191505b50858103825286818151815260200191508051906020019080838360005b838110156116035780820151818401526020810190506115e8565b50505050905090810190601f1680156116305780820380516001836020036101000a031916815260200191505b509850505050505050505060405180910390a3505050505050565b6060600560008381526020019081526020016000206000018054806020026020016040519081016040528092919081815260200182805480156116ad57602002820191906000526020600020905b815481526020019060010190808311611699575b50505050509050919050565b6060600780548060200260200160405190810160405280929190818152602001828054801561170757602002820191906000526020600020905b8154815260200190600101908083116116f3575b5050505050905090565b608060405190810160405280606081526020016060815260200160608152602001606081525090565b828054600181600116156101000203166002900490600052602060002090601f016020900481019282601f1061177b57805160ff19168380011785556117a9565b828001600101855582156117a9579182015b828111156117a857825182559160200191906001019061178d565b5b5090506117b691906117fd565b5090565b604080519081016040528060608152602001600081525090565b608060405190810160405280606081526020016060815260200160608152602001606081525090565b61181f91905b8082111561181b576000816000905550600101611803565b5090565b905600a165627a7a723058206dddcbc6845420d058267c98a67a9648c5b89897cafc992b829a5562568d80c40029",
  "source": "pragma solidity ^0.4.24;\r\ncontract Doc_translation {\r\n    \r\n    \r\n   //meta data for original document\r\n      struct document{\r\n        \r\n        string language;\r\n        string ipfshash;\r\n        string title;\r\n        string author;\r\n    }\r\n    \r\n    //metadata for each paragraphe in a document\r\n    \r\n     struct paragraphe{\r\n        \r\n        string ipfshash;\r\n        uint sequnce;\r\n    }\r\n    \r\n    \r\n    //metadata for given translation for each paragraphe\r\n    struct translatation{\r\n        string language;\r\n        string ipfshash;\r\n        string title    ;\r\n        string translator;\r\n    }\r\n    \r\n    \r\n    // this struct to hold an array of all paragraphes of a given docuement id  \r\n    struct document_struct{\r\n        uint256[] paragrapheIds;\r\n    }\r\n    \r\n     // this struct to hold an array of all translations of a given paragraphe id  \r\n     struct paragraphe_struct{\r\n        uint256[] translateIds;\r\n    }\r\n    \r\n   \r\n    \r\n    \r\n    address private _owner; // the owner of the smart contract\r\n        \r\n    \r\n    // event emitted when document creation completed sussuffly\r\n    event CreateDocument(address indexed _from,string _language,string _ipfs, string _title, string _author,uint256 indexed _doc_id);\r\n    \r\n    // Here is mapping section \r\n    \r\n    mapping (uint256 => address) private _ownerof; // mapping to store the owner of the docuement \r\n    mapping (uint256 =>document) private _documentID; // this mapping to link a document to unique id and store it\r\n    mapping(uint256 => paragraphe) private _pragrapheID;// this mapping to link a paragraphe to unique id and store it\r\n    mapping(uint256 => translatation) private _translationID;// this mapping to link a translatation to unique id and store it\r\n    mapping(uint256 => document_struct) private _documentPragraphes;// this maaping to link documentid to an array of all its paragraphes id\r\n    mapping(uint256 => paragraphe_struct) private _pragrapheTranslations;// this maaping to link paragraphe id to an array of all its translations id\r\n    \r\n// array to list all document ids created\r\n    uint256[] private _DocIdArry;\r\n\r\n   \r\n  \r\n     constructor() public{\r\n        \r\n        _owner=msg.sender;\r\n    }\r\n    \r\n    function createDocument(uint256 _doc_id, string memory _language,string memory _ipfs ,string  memory _title,string memory  _author) public {\r\n        \r\n       require(_ownerof[_doc_id]==address(0),\"exist id\");\r\n        \r\n        document memory newDocument = document(_language,_ipfs,_title,_author);\r\n        \r\n        _ownerof[_doc_id]=msg.sender;\r\n        \r\n       \r\n        \r\n        _documentID[_doc_id]=newDocument;\r\n        _DocIdArry.push(_doc_id);\r\n        emit CreateDocument(msg.sender,_language,_ipfs,_title,_author,_doc_id);\r\n        \r\n        \r\n        \r\n        \r\n    }\r\n    \r\n    \r\n    \r\n     function createPragraphe(uint256 _parg_id,uint256 _doc_id,uint256 _sequnce,string  memory _ipfs) public {\r\n        \r\n       require(_ownerof[_doc_id]!=address(0),\"not exist id\");\r\n        \r\n        paragraphe memory newParagraphe = paragraphe(_ipfs,_sequnce+1);\r\n        \r\n       // _ownerof[_doc_id]=msg.sender;\r\n        \r\n        \r\n        _pragrapheID[_parg_id]=newParagraphe;\r\n        \r\n        _documentPragraphes[_doc_id].paragrapheIds.push(_parg_id);\r\n        \r\n        \r\n        \r\n        \r\n        \r\n        //emit CreateDoc(msg.sender,_language,_ipfs,_doc_id);\r\n        \r\n        \r\n      \r\n        \r\n    }\r\n    \r\n    \r\n     function createTranslatation(uint256 _tran_id,uint256 _parg_id,string memory  _language,string memory  _ipfs,string memory  _title,string memory  _translator) public {\r\n        \r\n       require(_pragrapheID[_parg_id].sequnce!=0,\"exist id\");\r\n        \r\n        translatation memory newTranslatation = translatation(_language,_ipfs,_title,_translator);\r\n        \r\n       // _ownerof[_doc_id]=msg.sender;\r\n        \r\n       \r\n        \r\n        _translationID[_tran_id]=newTranslatation;\r\n        \r\n        //_docIDtotranID[_doc_id].translateIds.push(_tran_id);\r\n        \r\n        _pragrapheTranslations[_parg_id].translateIds.push(_tran_id);\r\n        \r\n        //emit CreateDoc(msg.sender,_language,_ipfs,_doc_id);\r\n        \r\n    }\r\n    \r\n    \r\n    \r\n    function ListDocuments() public view returns(uint256[] memory ){\r\n\r\n        return _DocIdArry;\r\n    }\r\n    \r\n    \r\n    \r\n    function getDocument(uint256 _doc_id) public  view returns (string memory ,string memory ,string memory ,string memory ){\r\n        \r\n       document memory Document ;\r\n       \r\n       Document=_documentID[_doc_id];\r\n       return (Document.language,Document.ipfshash,Document.title,Document.author);\r\n    }\r\n    \r\n    function getTranslation(uint256 _tran_id) public view returns (string memory ,string memory ,string memory ,string memory ){\r\n        \r\n        \r\n        \r\n         translatation memory  Translatation ;\r\n         \r\n         \r\n        Translatation = _translationID[_tran_id];\r\n        \r\n       // _ownerof[_doc_id]=msg.sender;\r\n        \r\n       \r\n       \r\n       return (Translatation.language,Translatation.ipfshash,Translatation.title, Translatation.translator);\r\n    }\r\n    \r\n    \r\n    function getDocumentParagraphes(uint256 _doc_id) public view returns (uint256[]  memory ){\r\n        \r\n       \r\n       \r\n       \r\n        return _documentPragraphes[_doc_id].paragrapheIds;\r\n    }\r\n    \r\n    \r\n    \r\n    function getParagrapheTranslatations(uint256 _parg_id) public view returns (uint256[]  memory ){\r\n        \r\n       \r\n       \r\n       \r\n       return _pragrapheTranslations[_parg_id].translateIds;\r\n    }\r\n    \r\n    \r\n   \r\n    \r\n\r\n\r\n}",
  "sourcePath": "C:\\Dapp-development\\Document_translation\\truffle\\contracts\\Doc_translation.sol",
  "compiler": {
    "name": "solc",
    "version": "0.4.24+commit.e67f0147.Emscripten.clang"
  },
  "schemaVersion": "2.0.1",
  "updatedAt": "2018-12-23T20:44:33.576Z"
}